:1000000034EF33F000000000D0EF32F000000000C9
:0C0010000000000000000000E4EF32F0EF
:10001C000B820BAE18EF00F00368026801680068F1
:08002C000A360232FF0E120039
:0E003400026A016A006A086A036A000E12007E
:100042000B840BAE2CEF00F0010E036E026A016A04
:0A005200006A0A360232FF0E1200A7
:08005C000AAE029E000E120024
:100064000CB074EF00F00CA21AEF01F00E6A000E4F
:1000740002648BEF00F0F00E0214D8A456EF00F0E7
:10008400023A01380F0B02260138F00B016E0038DA
:100094000F0B01260038F00B006E08380F0B0026FA
:1000A4000838F00B086E0E84D89002BE6FEF00F093
:1000B40008360036013602360E2A02BE6FEF00F013
:1000C40008360036013602360E2A02BE6FEF00F003
:1000D40008360036013602360E2A0E50036410EF3D
:1000E40001F0035E0BBC08AE15EF01F0D880800E62
:1000F40008640030000E002201220222D8A015EF6D
:1001040001F0023201320032034A1AEF01F015EF16
:1001140001F001C002F000C001F008C000F0086A5C
:10012400000E0E860264C2EF00F0F00E0214D8A492
:10013400AAEF00F0023A01380F0B02260138F00B47
:10014400016E00380F0B01260038F00B006E0E8490
:10015400D89002BE6FEF00F00036013602360E2A48
:1001640002BE6FEF00F00036013602360E2A02BEE0
:100174006FEF00F00036013602360E2A6FEF00F002
:1001840001C002F000C001F0006A000E0E960E8855
:100194000264EFEF00F0F00E0214D8A4DAEF00F0DE
:1001A400023A01380F0B02260138F00B016E0E845F
:1001B400D89002BE6FEF00F0013602360E2A02BE5E
:1001C4006FEF00F0013602360E2A02BE6FEF00F028
:1001D400013602360E2A6FEF00F001C002F0016A08
:1001E400000E0E8602641FEF01F0F00E0214D8A474
:1001F400FEEF00F0023A0E84D89002BE6FEF00F0DA
:1002040002360E2A02BE6FEF00F002360E2A02BE3C
:100214006FEF00F002360E2A6FEF00F0010E0C6E45
:100224000EDF22EF01F0020E0C6E16DF22EF01F05A
:10023400040E0C6EF1DE22EF01F0080E0C6EF8DEF7
:020244001200A6
:100246000D6A086A0050D8B4000C04180A6E0ABE7B
:100256000D1E0B6A04AE02D0041E042A00AE02D0A4
:10026600001E002A005004100A6E0ABE1FD0045059
:10027600085E003600340836045008260036060E9E
:100286000C6E00340836045000B0085E00A0082644
:1002960000360C2EF6D700A008260BB015D00DAEF2
:1002A600000C001E002A081E082A000C04AE09D005
:1002B60000BE04D00050086E006AF1D7006A002A1A
:1002C600000C001E0B2AD3D7082A0450085CD8A4B9
:0E02D600E6D7086A002A00AEE2D7FF0C12003D
:1002E4000134083609360450085E0550D8A0053C90
:1002F400095E003601360F0E0C6E013408360936DD
:10030400045000A006D0085E0550D8A0053C095E44
:1003140005D008260550D8B0053C0926003601361C
:100324000C2EEBD700B006D0045008260550D8B0E8
:08033400053C0926000012003F
:10033C000B800BAEAAEF01F0026A0AAEFF0E026E42
:0C034C00016E006E0A360232FF0E120035
:080358000B6A0B86FF0E120078
:10036000086A096A000E0762036435EF02F0025062
:1003700006180A6E075003267E0ED8A0C6EF01F0BD
:10038000035ED8B039EF02F0CAEF01F0035ED8A0E7
:100390003DEF02F0028E068E02C00EF001C00BF09F
:1003A00000C00DF000500402F4CF0CF00150050223
:1003B000F4CF00F0F3CF08F00402F3500C26F45011
:1003C0000822000E00220D500502F3500C26F450B6
:1003D0000822000E002202500402F3500826F450B6
:1003E000002202500502016A000E0122F35000268D
:1003F000F45001220D500602F3500826F45000225A
:10040000026A000E012202220B500602F35000265F
:10041000F4500122000E02220E500602F350012673
:10042000F450022202BE1DEF02F0083600360136FB
:1004300002360306D8B43DEF02F030EF02F0D88068
:10044000800E08640030000E002201220222D8A093
:1004500030EF02F0023201320032034A39EF02F08B
:100460000AAE029E000E3FEF02F0010EE3DD3FEF09
:1004700002F0020ED3DD3FEF02F0040EE2DD1200C7
:10048000025006180E6E086A096A0B6A0350076468
:1004900033EF03F006500A6E068E028E03500B6E89
:1004A0000750036E000E0B6483EF02F00B50075EE3
:1004B000D8B424EF03F0070E0764F2EF02F0075EF2
:1004C00000C008F001C000F002C001F0026A074E4F
:1004D00024EF03F00764C7EF02F0075E00C008F0E6
:1004E00001C000F0016A074E24EF03F00764A5EF96
:1004F00002F0075E00C008F0006A074E24EF03F028
:1005000007648CEF02F00AC002F005C001F004C0DD
:1005100000F0086A50EF04F0030E076497EF02F052
:10052000075E08380F0B086E074E24EF03F0D890D3
:100530000832074E24EF03F0D8900832074E24EF1C
:1005400003F0D890083224EF03F0030E0764B6EFEF
:1005500002F0075E08380F0B086E0038F00B082613
:1005600000380F0B006E074E24EF03F0D8900032D6
:100570000832074E24EF03F0D89000320832074EBD
:1005800024EF03F0D8900032083224EF03F0030E7A
:100590000764DEEF02F0075E08380F0B086E0038C4
:1005A000F00B082600380F0B006E0138F00B002608
:1005B00001380F0B016E074E24EF03F0D890013283
:1005C00000320832074E24EF03F0D8900132003297
:1005D0000832074E24EF03F0D8900132003208327F
:1005E00024EF03F0030E07640FEF03F0075E0838F3
:1005F0000F0B086E0038F00B082600380F0B006E4A
:100600000138F00B002601380F0B016E0238F00B99
:10061000012602380F0B026E074E24EF03F0D8902C
:100620000232013200320832074E24EF03F0D89034
:100630000232013200320832074E24EF03F0D89024
:100640000232013200320832096A000E0EAE18EF93
:1006500004F0081E001E011E021E082A00220122AC
:10066000022218EF04F00750D8A439EF03F050EF3E
:1006700004F0096A02C00AF0028E068E0750035C7D
:10068000076ED8B40BEF04F0070E0764D9EF03F040
:10069000075E0450096E0550046E0650056E066A2A
:1006A000074E0BEF04F0070E0764AEEF03F0075E92
:1006B0000450096E0550046E056A074E0BEF04F0F6
:1006C000070E07648CEF03F0075E0450096E046A9E
:1006D000074E0BEF04F0070E076473EF03F00AC038
:1006E00002F050EF04F0030E07647EEF03F0075EA4
:1006F00009380F0B096E074E0BEF04F0D890093242
:10070000074E0BEF04F0D8900932074E0BEF04F0C0
:10071000D89009320BEF04F0030E07649DEF03F04D
:10072000075E09380F0B096E0438F00B09260438F0
:100730000F0B046E074E0BEF04F0D8900432093211
:10074000074E0BEF04F0D89004320932074E0BEF3E
:1007500004F0D890043209320BEF04F0030E076462
:10076000C5EF03F0075E09380F0B096E0438F00B74
:10077000092604380F0B046E0538F00B04260538E3
:100780000F0B056E074E0BEF04F0D89005320432C4
:100790000932074E0BEF04F0D890053204320932CB
:1007A000074E0BEF04F0D8900532043209320BEFFC
:1007B00004F0030E0764F6EF03F0075E09380F0B31
:1007C000096E0438F00B092604380F0B046E053847
:1007D000F00B042605380F0B056E0638F00B0526C6
:1007E00006380F0B066E074E0BEF04F0D89006325A
:1007F000053204320932074E0BEF04F0D89006326E
:10080000053204320932074E0BEF04F0D89006325D
:10081000053204320932086A000E0EAE18EF04F0F9
:10082000091E041E051E061E092A04220522062290
:1008300009500826045000220550012206500222C9
:100840000EBE2FEF04F0D8A03EEF04F002320132CA
:1008500000320832033E3EEF04F04AEF04F0D8B015
:1008600044EF04F0000E081E001E011E021E082A9E
:100870000022012202220A7E44EF04F0010E0C6ED7
:1008800032EC00F052EF04F0020E0C6E32EC00F08D
:1008900052EF04F0040E0C6E0EEC00F052EF04F078
:0608A000000E0C6E1200B8
:0E08A600ACB202D00000FCD7C5C2ADFF1200FC
:0C08B40072B201D0FDD7C5C273FF120064
:1008C000086A080E0C6E003408360450085ED8B072
:0E08D00002D00826D89000360C2EF5D7120064
:1008DE00C7B409D01F0EC514016E0150000A03E102
:0A08EE00010E006E01D0006A120036
:1008F800F250026EF29E0500FF6A0150FE6E005033
:08090800FD6E02BEF28E12002A
:100910000450000A08E10550000A05E1FF0E006ED0
:100920007F0E016E57D00D6A096A086A01500010E7
:10093000D8B4000C015005180A6E0ABE0D1E0B6AD1
:1009400005AE05D0041E051E042AD8B4052A01AE42
:1009500005D0001E011E002AD8B4012A015005103E
:100960000A6E0ABE10D0BEDC0BB020D00DAE000C5B
:10097000001E011E002AD8B4012A081E091E082ADA
:10098000D8B4092A000C05AE0DD001BE07D0015025
:10099000096E0050086E016A006AE8D7016A006AB1
:1009A000002A000C011E001E0B2ADDD7082AD8B42D
:1009B000092A0450085CD8A4D9D70550095CD8A4EA
:1009C000D5D7096A086A002AD8B4012A01AECED761
:0609D0000000FF0C120004
:1009D6000B6A0A6A096A00500402F4CF09F0F3CFE1
:1009E60008F001500502F4CF0BF0F3CF0AF00050E7
:1009F6000502F3500926F4500A22E86A0B22015038
:100A06000402F3500926F4500A22E86A0B2208C0B1
:100A160000F009C001F00AC002F00BC003F012009A
:100A26000201C051390806E3300EC05D03E3010E32
:080A3600006E01D0006A1200FD
:100A3E0003500718D8A433EF05F002500618D8A4B7
:100A4E0033EF05F001500518D8A433EF05F0005030
:0E0A5E000418D8B4D8841200D89412001200E4
:100A6C000A6A0350D8A40A800750D8A40A820A50F4
:100A7C00D8B499EF05F0030AD8B452EF05F00AB0D8
:100A8C004DEF05F006AE97EF05F095EF05F002AED1
:100A9C0095EF05F097EF05F00250800B0A6E029E61
:100AAC000650800B069E0A18D8B463EF05F00A5066
:100ABC00D8B495EF05F097EF05F00750035CD8B468
:100ACC006DEF05F0D8A089EF05F08FEF05F006501B
:100ADC00025CD8B477EF05F0D8A089EF05F08FEF62
:100AEC0005F00550015CD8B481EF05F0D8A089EF72
:100AFC0005F08FEF05F00450005CD8B499EF05F0C9
:100B0C00D8B08FEF05F00A52D8B497EF05F095EFF7
:100B1C0005F00A52D8B495EF05F097EF05F0D880A0
:0E0B2C001200D8901200D880D8841200120057
:100B3A000B6A0A6A096A086A0E6A0334083604509C
:100B4A00085E0550D8A0053C095E0650D8A0063CB0
:100B5A000A5E0750D8A0073C0B5EE86AD8A0010ECF
:100B6A000E5E0336070E0C6E0334083609360A3653
:100B7A000B360E36045003A012D0085E0550D8A0DA
:100B8A00053C095E0650D8A0063C0A5E0750D8A06C
:100B9A00073C0B5EE86AD8A0010E0E5E11D008264B
:100BAA000550D8B0053C09260650D8B0063C0A269E
:100BBA000750D8B0073C0B26E86AD8B0010E0E26BB
:100BCA0003360C2ED1D70234083609360A360B36CC
:100BDA000E36045003A012D0085E0550D8A0053C7A
:100BEA00095E0650D8A0063C0A5E0750D8A0073C0A
:100BFA000B5EE86AD8A0010E0E5E11D008260550D9
:100C0A00D8B0053C09260650D8B0063C0A2607503B
:100C1A00D8B0073C0B26E86AD8B0010E0E26023679
:100C2A00070E0C6E0234083609360A360B360E36B3
:100C3A00045002A012D0085E0550D8A0053C095EF7
:100C4A000650D8A0063C0A5E0750D8A0073C0B5EA7
:100C5A00E86AD8A0010E0E5E11D008260550D8B059
:100C6A00053C09260650D8B0063C0A260750D8B0DB
:100C7A00073C0B26E86AD8B0010E0E2602360C2E67
:100C8A00D1D70134083609360A360B360E360450E7
:100C9A0002A012D0085E0550D8A0053C095E065095
:100CAA00D8A0063C0A5E0750D8A0073C0B5EE86A4B
:100CBA00D8A0010E0E5E11D008260550D8B0053C0A
:100CCA0009260650D8B0063C0A260750D8B0073C79
:100CDA000B26E86AD8B0010E0E260136070E0C6EF6
:100CEA000134083609360A360B360E36045001A08E
:100CFA0012D0085E0550D8A0053C095E0650D8A05F
:100D0A00063C0A5E0750D8A0073C0B5EE86AD8A0EA
:100D1A00010E0E5E11D008260550D8B0053C0926F2
:100D2A000650D8B0063C0A260750D8B0073C0B2616
:100D3A00E86AD8B0010E0E2601360C2ED1D700343F
:100D4A00083609360A360B360E36045001A012D080
:100D5A00085E0550D8A0053C095E0650D8A0063C9E
:100D6A000A5E0750D8A0073C0B5EE86AD8A0010EBD
:100D7A000E5E11D008260550D8B0053C092606504B
:100D8A00D8B0063C0A260750D8B0073C0B26E86ABA
:100D9A00D8B0010E0E260036070E0C6E0034083647
:100DAA0009360A360B360E36045000A012D0085EF9
:100DBA000550D8A0053C095E0650D8A0063C0A5E3C
:100DCA000750D8A0073C0B5EE86AD8A0010E0E5E59
:100DDA0011D008260550D8B0053C09260650D8B0CF
:100DEA00063C0A260750D8B0073C0B26E86AD8B05A
:100DFA00010E0E2600360C2ED1D700B00ED00450AC
:100E0A0008260550D8B0053C09260650D8B0063C3D
:0C0E1A000A260750D8B0073C0B26120037
:080E2600067E40EC02F0120010
:100E2E000B6A0C6A086A0350D8B49BEF07F002C035
:100E3E000AF0028E9E0E035E03AE8BEF07F0036C7C
:100E4E00080E035CD8A058EF07F0036E083600C0FA
:100E5E0008F001C000F002C001F0026A080E035C47
:100E6E00D8A058EF07F0036E083600C008F001C096
:100E7E0000F0016A080E035CD8A058EF07F0036E6D
:100E8E00083600C008F0006A080E035CD8A058EFC0
:100E9E0007F0036E0836086A0350D8A4D89064EFA2
:100EAE0007F00350D8B464EF07F0D8900232013245
:100EBE0000320832032E5CEF07F00BBC08A075EF72
:100ECE0007F0D8A075EF07F0082AD8B4002AD8B4D6
:100EDE00012AD8B4022A02BE9FEF07F00AAE9BEF9A
:100EEE0007F0021E011E001E081E082AD8B4002A92
:100EFE00D8B4012AD8B4022A9BEF07F0026A016A1D
:100F0E00006A086A9BEF07F00B800BAEA6EF07F0A6
:100F1E00026A0AAEA6EF07F0026E016E006E086E50
:100F2E000A360232A6EF07F00C6A000EA7EF07F0A2
:100F3E00010E0C6E000E9EEC01F0A7EF07F0FF0EF7
:100F4E000250036E0150026E0050016E0850006E8A
:020F5E0012007F
:100F60006E0E0201C05DD8A0C6D0640E046EC0C271
:100F700000F0A6DC120E0024056E066A000E0622A2
:100F800005C000F006C001F0000E06BEFF0E026EA6
:100F9000036E0036009001360236033600360090AC
:100FA000013602360336FD0E0024F66E6D0E01206A
:100FB000F76E000E0220F86E0900F5CF00F0090070
:100FC000F5CF01F00900F5CF02F00900F5CF03F0ED
:100FD000000E046E000E056E000E066E7E0E076E8D
:100FE000B0EC01F000C0C1F201C0C2F202C0C3F215
:100FF00003C0C4F2640E046EC0C200F061DC08C01D
:1010000000F00A0E046E5CDC090E0024056E066A10
:10101000000E062205C000F006C001F0000E06BE5C
:10102000FF0E026E036E0036009001360236033664
:1010300000360090013602360336FD0E0024F66EAF
:101040006D0E0120F76E000E0220F86E0900F5CF3C
:1010500000F00900F5CF01F00900F5CF02F009001A
:10106000F5CF03F0C1C204F0C2C205F0C3C206F05E
:10107000C4C207F0B0EC01F000C0C1F201C0C2F27E
:1010800002C0C3F203C0C4F20A0E046EC0C200F074
:1010900017DC08C000F000C001F0000E026E036E05
:1010A000046E013601900236033604360136019093
:1010B000023603360436FD0E0124F66E6D0E022054
:1010C000F76E000E0320F86E0900F5CF00F009005E
:1010D000F5CF01F00900F5CF02F00900F5CF03F0DC
:1010E000C1C204F0C2C205F0C3C206F0C4C207F018
:1010F000B0EC01F0B1D0C0510A08D8B07ED00A0ED1
:10110000046EC0C200F060EC04F0090E0024056E0D
:10111000066A000E062205C000F006C001F0000EAF
:1011200006BEFF0E026E036E0036009001360236D8
:10113000033600360090013602360336FD0E0024D9
:10114000F66E6D0E0120F76E000E0220F86E09009B
:10115000F5CF00F00900F5CF01F00900F5CF02F05E
:101160000900F5CF03F0000E046E000E056E000EB0
:10117000066E7E0E076EB0EC01F000C0C1F201C039
:10118000C2F202C0C3F203C0C4F20A0E046EC0C2AF
:1011900000F060EC04F008C000F000C001F0000EA8
:1011A000026E036E046E0136019002360336043679
:1011B00001360190023603360436FD0E0124F66E28
:1011C0006D0E0220F76E000E0320F86E0900F5CFB9
:1011D00000F00900F5CF01F00900F5CF02F0090099
:1011E000F5CF03F0C1C204F0C2C205F0C3C206F0DD
:1011F000C4C207F0B0EC01F02FD0C0C200F0000E66
:10120000016E026E036E0036009001360236033620
:1012100000360090013602360336FD0E0024F66ECD
:101220006D0E0120F76E000E0220F86E0900F5CF5A
:1012300000F00900F5CF01F00900F5CF02F0090038
:10124000F5CF03F0000E046E000E056E000E066E64
:0A1250007E0E076EB0EC01F01200F4
:10125A000450000A12E10550000A0FE10650000A84
:10126A000CE10750000A09E1FF0E006EFF0E016E45
:10127A007F0E026EFF0E036EA8D0086A096A075035
:10128A00D8B4D8EF09F00350D8B4DDEF09F0025012
:10129A0006180A6E028E068E0E6A02C008F001C097
:1012AA000CF000C00DF004500D5E0550D8A0053CAE
:1012BA000C5E0650D8A0063C085E086A0C6A0D6AE5
:1012CA00D8A06FEF09F0D89002320132003208320A
:1012DA00010E0E6E0750035ED8A07CEF09F07E0E59
:1012EA000E240326D8B0E2EF09F082EF09F07E0E51
:1012FA000E240326D8A0E7EF09F0180E0B6E0D3660
:10130A000C3608360036013602360E360450005EB8
:10131A000550D8A0053C015E0650D8A0063C025EE6
:10132A0006340E120EA09DEF09F00D80A8EF09F009
:10133A00045000260550D8B0053C01260650D8B006
:10134A00062802260D900B2E84EF09F0CEEF09F045
:10135A00D8900036013602360E360450005E05502B
:10136A00D8A0053C015E0650D8A0063C025E0634B1
:10137A000E10010B0D26D8B00C2AD8B4082AD8A40E
:10138A00CEEF09F008320C320D32032AD8B4E2EF5C
:10139A0009F00AAE089E0850026E0C50016E0D50FC
:1013AA00006EEAEF09F0010EACEC01F0EAEF09F089
:1013BA00020E1AEC00F0EAEF09F0040E0EEC00F04F
:0C13CA00EAEF09F0080E21EC00F0120020
:1013D600800E0201C019006E800E000A005CD8B0B3
:1013E6006DD1C0510008016E01C0C0F2800E011817
:1013F600006E800E6E0A005CD8A0C0D0640E046E2B
:10140600C0C200F023EC01F0120E0024056E000E9F
:1014160000BEFF0E066E000E062205C000F006C0D6
:1014260001F0000E06BEFF0E026E036E003600903F
:101436000136023603360036009001360236033690
:10144600FD0E0024F66E6D0E0120F76E000E0220D2
:10145600F86E0900F5CFC1F20900F5CFC2F2090016
:10146600F5CFC3F20900F5CFC4F2640E046EC0C214
:1014760000F023EC01F008C000F00A0E046E23EC25
:1014860001F0090E0024056E000E00BEFF0E066E6A
:10149600000E062205C000F006C001F0000E06BED2
:1014A600FF0E026E036E00360090013602360336DA
:1014B60000360090013602360336FD0E0024F66E25
:1014C6006D0E0120F76E000E0220F86E0900F5CFB2
:1014D60000F00900F5CF01F00900F5CF02F0090090
:1014E600F5CF03F0C1C204F0C2C205F0C3C206F0D4
:1014F600C4C207F0B0EC01F000C0C1F201C0C2F2F4
:1015060002C0C3F203C0C4F20A0E046EC0C200F0E9
:1015160023EC01F008C000F000C001F0000E00BE90
:10152600FF0E026E036E046E01360190023603361C
:10153600043601360190023603360436FD0E0124C8
:10154600F66E6D0E0220F76E000E0320F86E09008F
:10155600F5CF00F00900F5CF01F00900F5CF02F054
:101566000900F5CF03F0C1C204F0C2C205F0C3C240
:1015760006F0C4C207F0B0EC01F007D2800E0A0AEA
:10158600006E800EC019005C71E20A0E046EC0C2C5
:1015960000F023EC01F0090E0024056E000E00BEDB
:1015A600FF0E066E000E062205C000F006C001F012
:1015B600000E06BEFF0E026E036E00360090013668
:1015C6000236033600360090013602360336FD0E2B
:1015D6000024F66E6D0E0120F76E000E0220F86EE6
:1015E6000900F5CFC1F20900F5CFC2F20900F5CF27
:1015F600C3F20900F5CFC4F20A0E046EC0C200F0B1
:1016060023EC01F008C000F000C001F0000E00BE9F
:10161600FF0E026E036E046E01360190023603362B
:10162600043601360190023603360436FD0E0124D7
:10163600F66E6D0E0220F76E000E0320F86E09009E
:10164600F5CF00F00900F5CF01F00900F5CF02F063
:101656000900F5CF03F0C1C204F0C2C205F0C3C24F
:1016660006F0C4C207F0B0EC01F08FD1C0C200F0A2
:10167600000EC0BFFF0E016E026E036E00360090B4
:10168600013602360336003600900136023603363E
:10169600FD0E0024F66E6D0E0120F76E000E022080
:1016A600F86E0900F5CF00F00900F5CF01F009004A
:1016B600F5CF02F00900F5CF03F067D1800EC0190F
:1016C600006E800E6E0A005CD8A0C0D0640E046E58
:1016D600C0C200F023EC01F0120E0024056E000ECD
:1016E60000BEFF0E066E000E062205C000F006C004
:1016F60001F0000E06BEFF0E026E036E003600906D
:1017060001360236033600360090013602360336BD
:10171600310E0024F66E6E0E0120F76E000E0220CA
:10172600F86E0900F5CFC1F20900F5CFC2F2090043
:10173600F5CFC3F20900F5CFC4F2640E046EC0C241
:1017460000F023EC01F008C000F00A0E046E23EC52
:1017560001F0090E0024056E000E00BEFF0E066E97
:10176600000E062205C000F006C001F0000E06BEFF
:10177600FF0E026E036E0036009001360236033607
:1017860000360090013602360336310E0024F66E1E
:101796006E0E0120F76E000E0220F86E0900F5CFDE
:1017A60000F00900F5CF01F00900F5CF02F00900BD
:1017B600F5CF03F0C1C204F0C2C205F0C3C206F001
:1017C600C4C207F0B0EC01F000C0C1F201C0C2F221
:1017D60002C0C3F203C0C4F20A0E046EC0C200F017
:1017E60023EC01F008C000F000C001F0000E00BEBE
:1017F600FF0E026E036E046E01360190023603364A
:10180600043601360190023603360436310E0124C1
:10181600F66E6E0E0220F76E000E0320F86E0900BB
:10182600F5CF00F00900F5CF01F00900F5CF02F081
:101836000900F5CF03F0C1C204F0C2C205F0C3C26D
:1018460006F0C4C207F0B0EC01F09FD0800E0A0A81
:10185600006E800EC019005C71E20A0E046EC0C2F2
:1018660000F023EC01F0090E0024056E000E00BE08
:10187600FF0E066E000E062205C000F006C001F03F
:10188600000E06BEFF0E026E036E00360090013695
:101896000236033600360090013602360336310E24
:1018A6000024F66E6E0E0120F76E000E0220F86E12
:1018B6000900F5CFC1F20900F5CFC2F20900F5CF54
:1018C600C3F20900F5CFC4F20A0E046EC0C200F0DE
:1018D60023EC01F008C000F000C001F0000E00BECD
:1018E600FF0E026E036E046E013601900236033659
:1018F600043601360190023603360436310E0124D1
:10190600F66E6E0E0220F76E000E0320F86E0900CA
:10191600F5CF00F00900F5CF01F00900F5CF02F090
:101926000900F5CF03F0C1C204F0C2C205F0C3C27C
:1019360006F0C4C207F0B0EC01F027D0C0C200F038
:10194600000EC0BFFF0E016E026E036E00360090E1
:10195600013602360336003600900136023603366B
:10196600310E0024F66E6E0E0120F76E000E022078
:10197600F86E0900F5CF00F00900F5CF01F0090077
:0C198600F5CF02F00900F5CF03F01200CD
:101992000050086E0150006E0250016E0350026E3C
:1019A200036A0B6A0C6A9E0E036E0A6A020E0C6EC2
:0619B20032EC00F012000F
:1019B8000B6A0C6A0A6A086A0350D8B464EF0DF01F
:1019C800028E9E0E035E03BEEFEF0CF0D8B4EFEF6D
:1019D8000CF054EF0DF0036C080E035CD8A021EF57
:1019E8000DF0036E083600C008F001C000F002C018
:1019F80001F0026A080E035CD8A021EF0DF0036E17
:101A0800083600C008F001C000F0016A080E035C47
:101A1800D8A021EF0DF0036E083600C008F0006A68
:101A2800080E035CD8A021EF0DF0036E0836086A93
:101A38000350D8A4D8902DEF0DF00350D8B42DEF53
:101A48000DF0D8900232013200320832032E25EF11
:101A58000DF00BBC08A03EEF0DF0D8A03EEF0DF046
:101A6800082AD8B4002AD8B4012AD8B4022A02BE57
:101A780068EF0DF00AAE64EF0DF0021E011E001EA5
:101A8800081E082AD8B4002AD8B4012AD8B4022AD1
:101A980064EF0DF0026A016A006A086A64EF0DF0EB
:101AA8000B800BAE6EEF0DF0026A0AAE6EEF0DF012
:101AB800026E016E006E086E0A3602326EEF0DF08D
:101AC800000E0C6A6FEF0DF0010E0C6E9EEC01F02B
:101AD8006FEF0DF0FF0E0250036E0150026E0050C2
:081AE800016E0850006E1200AF
:101AF00041C09AF242C09BF243C09CF244C09DF2A6
:101B00009E96C5869EB620D0415042104310441088
:101B10001AE002019A519B119C119D110DE132C1F5
:101B2000E1FF33C1E2FF030EE66E30C100F031C1C8
:101B300001F07CEC04F008D0010E02019A5F000E67
:101B40009B5B9C5B9D5BDED70201C9CF99F29851EC
:101B5000000A02E1C58A01D0C59A9E96C58841C097
:101B60009AF242C09BF243C09CF244C09DF29EB6E2
:101B700020D041504210431044101AE002019A5103
:101B80009B119C119D110DE132C1E1FF33C1E2FFB8
:101B9000030EE66E30C100F031C101F07CEC04F0C0
:101BA00008D0010E02019A5F000E9B5B9C5B9D5B5F
:081BB000DED799C200F012001B
:101BB80041C09AF242C09BF243C09CF244C09DF2DD
:101BC8000201986B996B9951120802E198518E089D
:101BD80009E36FEC04F0005201E004D00201984BD5
:101BE800992BF1D70201120E995D02E18F0E985DD3
:101BF80003E37B0E006E25D0C580C5A021D04150DF
:101C08004210431044101BE09A519B119C119D11E6
:101C18000FE132C1E1FF33C1E2FF050EE66E30C1CC
:101C280000F031C101F07CEC04F0010E006E09D027
:101C3800010E02019A5F000E9B5B9C5B9D5BDDD7EA
:041C4800006A12001C
:101C4C009E9698C2C9FF41C099F242C09AF243C015
:101C5C009BF244C09CF2C7A422D0415042104310C6
:101C6C0044101CE0020199519A119B119C110FE137
:101C7C0032C1E1FF33C1E2FF040EE66E30C100F069
:101C8C0031C101F07CEC04F0010E006E3BD0010E72
:101C9C000201995F000E9A5B9B5B9C5BDCD741C099
:101CAC0099F242C09AF243C09BF244C09CF29EB699
:101CBC0022D041504210431044101CE002019951B3
:101CCC009A119B119C110FE132C1E1FF33C1E2FF6C
:101CDC00040EE66E30C100F031C101F07CEC04F072
:101CEC00010E006E0FD0010E0201995F000E9A5B7F
:101CFC009B5B9C5BDCD7C5BC02D0006A03D0C5845F
:061D0C00020E006E120041
:041D1200C584120072
:101D16000C6A0E6A0250D8A4A4EF0EF001C002F0BD
:101D260000C001F0006A0E860250D8A4A4EF0EF09F
:101D360001C002F0016A0E960E880250D8B4B6EFC2
:101D46000EF00E50035ED8A4D8A0BCEF0EF0D890CB
:101D560002BEC2EF0EF0003601360236032EABEF9E
:101D66000EF0BCEF0EF0010E0C6E1AEC00F0C6EF92
:101D76000EF0020E0C6E21EC00F0C6EF0EF0040E13
:081D86000C6E2EEC00F01200BF
:0A1D8E001D0E0D6E0D2EFED7120083
:101D98000201B86BB96BAC6BAD6B9AC200F09BC219
:101DA80001F09CC202F0010E9A27000E9B239C238F
:101DB80000C0F6FF01C0F7FF02C0F8FF0900F5CF29
:101DC80000F000C0A9F20052D8B4DAEF1EF0A95111
:101DD800250A0BE098C2E1FF99C2E2FFA9C2E6FF1B
:101DE800984B992BB84BB92BD8D7AA6BAB6BAC6B6C
:101DF800AD6B23D0AC87010E9A27000E9B239C2342
:101E080059D0AC81010E9A27000E9B239C2352D0F7
:101E1800AC83010E9A27000E9B239C234BD0AD87E1
:101E2800010E9A27000E9B239C2344D0AC85010EFB
:101E38009A27000E9B239C233DD09AC2F6FF9BC293
:101E4800F7FF9CC2F8FF0900F5CF01F001502D0AF9
:101E5800D1E09AC2F6FF9BC2F7FF9CC2F8FF0900C7
:101E6800F5CF01F00150200ACCE09AC2F6FF9BC2E0
:101E7800F7FF9CC2F8FF0900F5CF01F001502B0ACB
:101E8800C7E09AC2F6FF9BC2F7FF9CC2F8FF0900A1
:101E9800F5CF01F00150230AC2E09AC2F6FF9BC2B7
:101EA800F7FF9CC2F8FF0900F5CF01F00150300A96
:101EB800BDE001D09ED7ACA301D0AC91ACA701D0B6
:101EC800AC959AC2F6FF9BC2F7FF9CC2F8FF0900C7
:101ED800F5CF00F0000E016E00C0C0F213EC05F063
:101EE800005236E0AA6BAB6BAAC200F0ABC201F09D
:101EF8000A0E046E000E056EEBEC04F09AC2F6FFB3
:101F08009BC2F7FF9CC2F8FF0900F5CF02F0025010
:101F18000024AA6F000E0120AB6F300EAA5F000EDE
:101F2800AB5B010E9A27000E9B239C239AC2F6FFF7
:101F38009BC2F7FF9CC2F8FF0900F5CF00F0000E26
:101F4800016E00C0C0F213EC05F00052CDE133D0B1
:101F58009AC2F6FF9BC2F7FF9CC2F8FF0900F5CFB3
:101F680001F001502A0A27E19DC2E9FF9EC2EAFF5B
:101F7800EECF00F0EECF01F000C0E9FF01C0EAFFAC
:101F8800EECFAAF2EECFABF29DC2E9FF9EC2EAFF06
:101F9800020EEE24006E000EEE20016E9DC2E1FFDF
:101FA8009EC2E2FF00C0E6FF01C0E6FF010E9A27CD
:101FB800000E9B239C239AC2F6FF9BC2F7FF9CC28C
:101FC800F8FF0900F5CF01F001502E0A70E1010E6B
:101FD8009A27000E9B239C239AC2F6FF9BC2F7FF09
:101FE8009CC2F8FF0900F5CF01F001502A0A28E148
:101FF8009DC2E9FF9EC2EAFFEECF00F0EECF01F0EE
:1020080000C0E9FF01C0EAFFEECFA7F2EECFA8F2C9
:102018009DC2E9FF9EC2EAFF020EEE24006E000E8A
:10202800EE20016E9DC2E1FF9EC2E2FF00C0E6FF06
:1020380001C0E6FF010E9A27000E9B239C2336D091
:10204800A76BA86B9AC2F6FF9BC2F7FF9CC2F8FF6A
:102058000900F5CF00F0000E016E00C0C0F213ECCD
:1020680005F0005223E0A7C200F0A8C201F00A0E52
:10207800046E000E056EEBEC04F09AC2F6FF9BC2EC
:10208800F7FF9CC2F8FF0900F5CF02F002500024C8
:10209800A76F000E0120A86F300EA75F000EA85B87
:1020A800010E9A27000E9B239C23CCD703D0A76B45
:1020B800A86BAD899AC200F09BC201F09CC202F0E5
:1020C800010E9A27000E9B239C2300C0F6FF01C037
:1020D800F7FF02C0F8FF0900F5CFA9F2F9D0B8C29E
:1020E80000F0B9C201F0DEEF1EF0AC89E3D7AD8590
:1020F8002ED1AC8BAD812BD1AD8329D1AC8D27D11D
:1021080026D1AC8BAC8F23D19DC2E9FF9EC2EAFFDA
:10211800EECF00F0EECF01F000C0E9FF01C0EAFF0A
:10212800EECFB4F2EECFB5F29DC2E9FF9EC2EAFF50
:10213800020EEE24006E000EEE20016E9DC2E1FF3D
:102148009EC2E2FF00C0E6FF01C0E6FF000EB5191F
:1021580002E1000EB41904E1450EB46F000EB56F2C
:10216800B66BB76BB651B425E96EB751B521EA6EB7
:10217800EE520BE0010EB625006E000EB721016E7F
:1021880000C0B6F201C0B7F2EDD7A751A8110AE016
:10219800B751A85D02E1B651A75D04E2A7C2B6F245
:1021A800A8C2B7F2AB51B75D02E1AA51B65D05E22C
:1021B800B651AA5FB751AB5B02D0AA6BAB6BACB799
:1021C80016D0AAC200F0ABC201F0010EAA5F000E41
:1021D800AB5B005001100BE098C2E1FF99C2E2FF2F
:1021E800200EE66E984B992BB84BB92BEAD7B6C29E
:1021F80002F0B7C203F0010EB65D006E000EB759CB
:10220800016E00C0B6F201C0B7F20250031019E027
:10221800B4C2E9FFB5C2EAFF98C2E1FF99C2E2FF82
:10222800EECFE6FF984B992B010EB425006E000EF9
:10223800B521016E00C0B4F201C0B5F2B84BB92B9C
:10224800D6D7ACA716D0AAC200F0ABC201F0010ED7
:10225800AA5F000EAB5B005001100BE098C2E1FFD3
:1022680099C2E2FF200EE66E984B992BB84BB92B1A
:10227800EAD793D59DC2E9FF9EC2EAFFEECF00F0F0
:10228800EECF01F000C0E9FF01C0EAFFEECFA9F2EE
:102298009DC2E9FF9EC2EAFF020EEE24006E000E08
:1022A800EE20016E9DC2E1FF9EC2E2FF00C0E6FF84
:1022B80001C0E6FFA90EB46F020EB56F010EB66F2E
:1022C800000EB76F62D7C00EAC13000EAD133FD02F
:1022D800A951000AD8B403D7A9516C0AD8B405D7B4
:1022E800A9514C0AD8B401D7A951660AD8B4FFD667
:1022F800A951450AD8B4FDD6A951650AD8B4FAD669
:10230800A951670AD8B4F8D6A9516F0AD8B4F6D635
:10231800A951640AD8B4F4D6A951690AD8B4F0D638
:10232800A951700AD8B4EDD6A951580AD8B4E9D63B
:10233800A951780AD8B4E6D6A951730AD8B4E4D614
:10234800A951630A97E0A951750ABDE0B3D7000EF9
:10235800AC15006EAD51070B016E00500110D8B4DA
:1023680081EF1AF0ADA904D0060EA76F000EA86F72
:102378009DC2E9FF9EC2EAFFEECF00F0EECF01F06A
:1023880000C0E9FF01C0EAFFEECFAEF2EECFAFF238
:10239800EECFB0F2EECFB1F29DC2E9FF9EC2EAFFE6
:1023A800040EEE24006E000EEE20016E9DC2E1FFC9
:1023B8009EC2E2FF00C0E6FF01C0E6FF046A056AAC
:1023C800066A076AAEC200F0AFC201F0B0C202F0FE
:1023D800B1C203F036EC05F0010ED8B0000E006E65
:1023E800005205E0B07F030EAC13000EAD13B26BC4
:1023F800B36BAEC200F0AFC201F0B0C202F0B1C21E
:1024080003F0046A056A066A076A1FEC05F0000E05
:10241800D8A4010E006E0052D8B48AD0B1C200F020
:10242800016A026A036AFF0E0016000E01167E0E8C
:10243800005E000E015A00C0B2F201C0B3F2010EF4
:10244800005E000E015A00C0B2F201C0B3F2030EE2
:10245800046E000E056EEBEC04F000C0B2F201C091
:10246800B3F20A0E046E000E056E88EC04F000C08C
:10247800B2F201C0B3F2800E0118026E800E025C47
:1024880002E1000E005C05E2010E0201B25F000EDF
:10249800B35B0201B2510008C06FEBEC09F0AEC2A9
:1024A80004F0AFC205F0B0C206F0B1C207F0B0EC5C
:1024B80001F000C0B4F201C0B5F202C0B6F203C028
:1024C800B7F2000E046E000E056E000E066E7F0E4B
:1024D800076EB4C200F0B5C201F0B6C202F0B7C2CE
:1024E80003F036EC05F0010ED8B0000E006E005275
:1024F80005E0010EB25F000EB35B1AD0000E046E49
:10250800000E056E200E066E820E076EB4C200F035
:10251800B5C201F0B6C202F0B7C203F036EC05F05E
:10252800000ED8B0010E006E005202E0B24BB32B81
:10253800800E006E800EB319005C02E1B2510008F3
:1025480003E3010EA96F02D0B2C2A9F2ADB118D04F
:10255800ADA315D0800EB319006E7F0E005C02E1AA
:10256800FC0EB25D0BE3800EB319006E800EA81945
:10257800005C02E1A751B25D01E201D001D0EFD3C6
:10258800A751A81106E0ADA304D0010EA75F000E65
:10259800A85BA851000802E1A751080803E2080E49
:1025A800A96F02D0A7C2A9F2AEC200F0AFC201F073
:1025B800B0C202F0B1C203F0046A056A066A076A8B
:1025C8001FEC05F0000ED8A4010E006E0052D8B41E
:1025D8004BD1B2C2C0F2EBEC09F000C004F001C06C
:1025E80005F002C006F003C007F0AEC200F0AFC2AB
:1025F80001F0B0C202F0B1C203F02DEC09F000C046
:10260800AEF201C0AFF202C0B0F203C0B1F20201F3
:10261800A9510008C06FEBEC09F000C004F001C03C
:1026280005F002C006F003C007F0AEC200F0AFC26A
:1026380001F0B0C202F0B1C203F02DEC09F000C005
:10264800BAF201C0BBF202C0BCF203C0BDF2BAC20A
:10265800AEF2BBC2AFF2BCC2B0F2BDC2B1F2BAC2F6
:1026680000F0BBC201F0BCC202F0BDC203F0DCEC5A
:102678000CF0C9EC0CF000C004F001C005F002C079
:1026880006F003C007F0BAC200F0BBC201F0BCC23A
:1026980002F0BDC203F013EC07F0000E046E000E4A
:1026A800056E000E066E7E0E076E36EC05F0000E07
:1026B800D8B0010E006E00521AE0AEC200F0AFC2F0
:1026C80001F0B0C202F0B1C203F0000E046E000EB9
:1026D800056E000E066E7E0E076E40EC02F000C01E
:1026E800AEF201C0AFF202C0B0F203C0B1F2AEC2A6
:1026F80000F0AFC201F0B0C202F0B1C203F0DCECEE
:102708000CF00201A951010F096E0A6A000E0A2293
:1027180009C004F00AC005F0000E0ABEFF0E066EDE
:10272800076E0436049005360636073604360490DC
:10273800053606360736950E0424F66E6E0E05200D
:10274800F76E000E0620F86E0900F5CF05F00900B7
:10275800F5CF06F00900F5CF07F00900F5CF08F02E
:102768000850035C08E10750025C05E10650015C73
:1027780002E10550005C1EE30201AEC200F0AFC2E8
:1027880001F0B0C202F0B1C203F0CD0E046ECC0E5F
:10279800056E4C0E066E7B0E076EB0EC01F000C0A5
:1027A800AEF201C0AFF202C0B0F203C0B1F2B24B58
:1027B800B32B5AD0AEC200F0AFC201F0B0C202F0E3
:1027C800B1C203F0DCEC0CF0A9C204F0000E056EF7
:1027D800066E076E0436049005360636073604364C
:1027E8000490053606360736950E0424F66E6E0EEE
:1027F8000520F76E000E0620F86E0900F5CF05F0EB
:102808000900F5CF06F00900F5CF07F00900F5CF6C
:1028180008F00850035C08E10750025C05E1065027
:10282800015C02E10550005C1FE20201AEC200F04B
:10283800AFC201F0B0C202F0B1C203F0000E046EE4
:10284800000E056E200E066E820E076EB0EC01F0CB
:1028580000C0AEF201C0AFF202C0B0F203C0B1F2E4
:10286800010EB25F000EB35B0201ADA393D0ADB70A
:1028780091D0800E000A006E800EA819005C02E15B
:10288800A7510A0804E20A0EA76F000EA86FAEC28D
:1028980000F0AFC201F0B0C202F0B1C203F0DCEC4C
:1028A8000CF000C0B4F201C0B5F202C0B6F203C029
:1028B800B7F2B451B511B611B71142E00A0E046E61
:1028C800000E056E066E076EB4C200F0B5C201F0C8
:1028D800B6C202F0B7C203F09DEC05F008C000F0E4
:1028E80009C001F00AC002F00BC003F0000E046E2C
:1028F800031808E10450021805E10450011802E128
:102908000050000A1DE1010EA75F000EA85B0A0E29
:10291800046E000E056E066E076EB4C200F0B5C2F6
:1029280001F0B6C202F0B7C203F09DEC05F000C09A
:10293800B4F201C0B5F202C0B6F203C0B7F2B9D71B
:10294800800EA819006E800E005C02E1A951A75DF7
:1029580021E2A751A95DC06FEBEC09F000C004F0BB
:1029680001C005F002C006F003C007F0AEC200F0D7
:10297800AFC201F0B0C202F0B1C203F02DEC09F011
:1029880000C0AEF201C0AFF202C0B0F203C0B1F2B3
:10299800A7C2A9F2050E0201A725006E000EA82104
:1029A800016E0050AA5F0150AB5BA751A81103E16B
:1029B800ADB701D004D0010EAA5F000EAB5B030EC9
:1029C800AC15006EADC201F0000E011600500110EA
:1029D80004E0010EAA5F000EAB5BACA539D0ACA336
:1029E80012D0ACA103D02D0E9F6F02D02B0E9F6F7B
:1029F80098C2E1FF99C2E2FF9FC2E6FF984B992B6C
:102A0800B84BB92B0CD0ACA10AD098C2E1FF99C23F
:102A1800E2FF200EE66E984B992BB84BB92B800E2F
:102A2800006E800EAB19005C02E1AA5100080FE2AB
:102A380098C2E1FF99C2E2FF300EE66E984B992BDF
:102A4800B84BB92B010EAA5F000EAB5BE8D73AD0A2
:102A5800ACB718D0800E006E800EAB19005C02E196
:102A6800AA5100080FE298C2E1FF99C2E2FF200EC6
:102A7800E66E984B992BB84BB92B010EAA5F000E46
:102A8800AB5BE8D7ACA312D0ACA103D02D0EA06FDE
:102A980002D02B0EA06F98C2E1FF99C2E2FFA0C23C
:102AA800E6FF984B992BB84BB92B0CD0ACA10AD0A8
:102AB80098C2E1FF99C2E2FF200EE66E984B992B6F
:102AC800B84BB92BAEC200F0AFC201F0B0C202F0F1
:102AD800B1C203F0DCEC0CF000C0B4F201C0B5F2F6
:102AE80002C0B6F203C0B7F2A9C200F0000E016E30
:102AF800026E036E00360090013602360336003649
:102B08000090013602360336950E0024F66E6E0EDE
:102B18000120F76E000E0220F86E0900F5CF04F0D0
:102B28000900F5CF05F00900F5CF06F00900F5CF4B
:102B380007F0B4C200F0B5C201F0B6C202F0B7C2E5
:102B480003F09DEC05F0300E002698C2E1FF99C213
:102B5800E2FF00C0E6FF984B992BB84BB92BA75161
:102B6800A81103E1ADB701D06FD098C2E1FF99C2B7
:102B7800E2FF2E0EE66E984B992BB84BB92BA95154
:102B8800A75F000EA85BA9534DE0A907A9C200F0F2
:102B9800000E016E026E036E00360090013602369A
:102BA800033600360090013602360336950E0024AF
:102BB800F66E6E0E0120F76E000E0220F86E090008
:102BC800F5CF04F00900F5CF05F00900F5CF06F0C0
:102BD8000900F5CF07F0B4C200F0B5C201F0B6C2E3
:102BE80002F0B7C203F09DEC05F00A0E046E000E69
:102BF800056E066E076E9DEC05F008C000F009C072
:102C080001F00AC002F00BC003F0300E002698C293
:102C1800E1FF99C2E2FF00C0E6FF984B992BB84B41
:102C2800B92BB1D7A751A8110FE098C2E1FF99C2FB
:102C3800E2FF300EE66E984B992BB84BB92B010E7C
:102C4800A75F000EA85BEED7ACAB0BD098C2E1FF34
:102C580099C2E2FF450EE66E984B992BB84BB92BFB
:102C68000AD098C2E1FF99C2E2FF650EE66E984B62
:102C7800992BB84BB92B800EB319006E800E005CEF
:102C880002E1000EB25D11E2B2510008B26FB35119
:102C9800000EB35798C2E1FF99C2E2FF2D0EE66E0F
:102CA800984B992BB84BB92B0AD098C2E1FF99C21F
:102CB800E2FF2B0EE66E984B992BB84BB92B0A0EF8
:102CC800046E000E056EB2C200F0B3C201F088ECCB
:102CD80004F0300E002698C2E1FF99C2E2FF00C05E
:102CE800E6FF0201984B992BB84BB92B0A0E046EDC
:102CF800000E056EB2C200F0B3C201F088EC04F019
:102D080008C000F009C001F0300E002698C2E1FFAB
:102D180099C2E2FF00C0E6FF0201984B992BB84B1D
:102D2800B92BACA71AD0800E006E800EAB19005CD0
:102D380002E1AA51000811E298C2E1FF99C2E2FF3C
:102D4800200EE66E984B992BB84BB92B010EAA5F53
:102D5800000EAB5BAA51AB11EFE1D1EF0EF0ADA3C2
:102D6800F3D0800EB319006E800E005C02E1000EF5
:102D7800B25D0AE2010EB25D006E000EB359016E3B
:102D88000050A75F0150A85BAEC200F0AFC201F0CF
:102D9800B0C202F0B1C203F0DCEC0CF000C0B4F237
:102DA80001C0B5F202C0B6F203C0B7F2010EA96FB6
:102DB800A9510A0A34E0A9C200F0000E016E026EA1
:102DC800036E003600900136023603360036009056
:102DD800013602360336950E0024F66E6E0E01207B
:102DE800F76E000E0220F86E0900F5CF01F0090019
:102DF800F5CF02F00900F5CF03F00900F5CF04F094
:102E08000450B75D08E10350B65D05E10250B55DB9
:102E180002E10150B45D01E202D0A92BC9D7A95142
:102E2800A75DBE6F000EA859BF6FBEC2A7F2BFC292
:102E3800A8F2B4C200F0B5C201F0B6C202F0B7C23F
:102E480003F0C9EC0CF000C004F001C005F002C0AA
:102E580006F003C007F0AEC200F0AFC201F0B0C286
:102E680002F0B1C203F013EC07F000C0BAF201C0DF
:102E7800BBF202C0BCF203C0BDF2BEC2C0F2EBECB2
:102E880009F0BAC204F0BBC205F0BCC206F0BDC26C
:102E980007F0B0EC01F0000E046E000E056E000E97
:102EA800066E7E0E076E40EC02F0DCEC0CF000C003
:102EB800B4F201C0B5F202C0B6F203C0B7F2A7512E
:102EC800A81142E00A0E046E000E056E066E076E2B
:102ED800B4C200F0B5C201F0B6C202F0B7C203F046
:102EE8009DEC05F008C000F009C001F00AC002F02E
:102EF8000BC003F0000E046E031808E1045002181A
:102F080005E10450011802E10050000A1DE10A0E13
:102F1800046E000E056E066E076EB4C200F0B5C2F0
:102F280001F0B6C202F0B7C203F09DEC05F000C094
:102F3800B4F201C0B5F202C0B6F203C0B7F2010E96
:102F4800A75F000EA85BBBD7800E006E800EA81985
:102F5800005C02E1A7510C0816E3A7C2C0F2B0EC6E
:102F680007F0AEC204F0AFC205F0B0C206F0B1C2BD
:102F780007F040EC02F000C0AEF201C0AFF202C0B0
:102F8800B0F203C0B1F2AEC200F0AFC201F0B0C2FD
:102F980002F0B1C203F0046A056A066A076A1FEC08
:102FA80005F0000ED8A4010E006E0052D8B477D0F8
:102FB800AEC200F0AFC201F0B0C202F0B1C203F07D
:102FC800DCEC0CF0000E046E031808E10450021843
:102FD80005E10450011802E10050000A60E1800E8A
:102FE800006E800EB319005C02E1B251010857E28D
:102FF800B2C2C0F2EBEC09F000C004F001C005F069
:1030080002C006F003C007F0AEC200F0AFC201F084
:10301800B0C202F0B1C203F02DEC09F05F0E046EED
:10302800700E056E090E066E810E076E36EC05F001
:10303800010ED8B0000E006E005206E0090E020123
:10304800B25F000EB35B05D00201080EB25F000E3E
:10305800B35BB2C2C0F2EBEC09F000C004F001C0EF
:1030680005F002C006F003C007F0AEC200F0AFC220
:1030780001F0B0C202F0B1C203F02DEC09F0DCECB3
:103088000CF000C0B4F201C0B5F202C0B6F203C041
:10309800B7F20201AE6BAF6BB06BB16B38D0AEC29A
:1030A80000F0AFC201F0B0C202F0B1C203F0DCEC34
:1030B8000CF000C0B4F201C0B5F202C0B6F203C011
:1030C800B7F2B4C200F0B5C201F0B6C202F0B7C29E
:1030D80003F0C9EC0CF000C004F001C005F002C018
:1030E80006F003C007F0AEC200F0AFC201F0B0C2F4
:1030F80002F0B1C203F013EC07F000C0AEF201C059
:10310800AFF202C0B0F203C0B1F2B26BB36B010E02
:10311800A96FA9510A0A34E0A9C200F0000E016E95
:10312800026E036E00360090013602360336003612
:103138000090013602360336950E0024F66E6E0EA8
:103148000120F76E000E0220F86E0900F5CF01F09D
:103158000900F5CF02F00900F5CF03F00900F5CF1B
:1031680004F00450B75D08E10350B65D05E1025074
:10317800B55D02E10150B45D01E202D0A92BC9D7C7
:10318800A951A725006E000EA821016EB251002694
:10319800B35101220050AA5F0150AB5BADB704D018
:1031A800A751A81101E104D0010EAA5F000EAB5B84
:1031B800030EAC15006EADC201F0000E01160050F2
:1031C800011004E0010EAA5F000EAB5BACA539D07C
:1031D800ACA312D0ACA103D02D0EA16F02D02B0E40
:1031E800A16F98C2E1FF99C2E2FFA1C2E6FF984B26
:1031F800992BB84BB92B0CD0ACA10AD098C2E1FFDF
:1032080099C2E2FF200EE66E984B992BB84BB92B6A
:10321800800E006E800EAB19005C02E1AA51000816
:103228000FE298C2E1FF99C2E2FF300EE66E984BBA
:10323800992BB84BB92B010EAA5F000EAB5BE8D7F0
:103248003AD0ACB718D0800E006E800EAB19005C77
:1032580002E1AA5100080FE298C2E1FF99C2E2FF19
:10326800200EE66E984B992BB84BB92B010EAA5F2E
:10327800000EAB5BE8D7ACA312D0ACA103D02D0EE7
:10328800A26F02D02B0EA26F98C2E1FF99C2E2FF93
:10329800A2C2E6FF984B992BB84BB92B0CD0ACA126
:1032A8000AD098C2E1FF99C2E2FF200EE66E984B61
:1032B800992BB84BB92BA9C200F0A90700524CE0D2
:1032C800A9C200F0000E016E026E036E0036009077
:1032D80001360236033600360090013602360336D0
:1032E800950E0024F66E6E0E0120F76E000E022079
:1032F800F86E0900F5CF04F00900F5CF05F00900D4
:10330800F5CF06F00900F5CF07F0B4C200F0B5C25A
:1033180001F0B6C202F0B7C203F09DEC05F00A0E48
:10332800046E000E056E066E076E9DEC05F008C073
:1033380000F009C001F00AC002F00BC003F0300E23
:10334800002698C2E1FF99C2E2FF00C0E6FF984B51
:10335800992BB84BB92BAFD7800E006E800EB319DE
:10336800005C02E1B25100080FE298C2E1FF99C285
:10337800E2FF300EE66E984B992BB84BB92B010E35
:10338800B25F000EB35BE8D7800E000A006E800EB5
:10339800A819005C02E1A751080803E2080EA96F0A
:1033A80002D0A7C2A9F2A951A75F000EA85BA95332
:1033B80003E1ADB701D00AD098C2E1FF99C2E2FF9C
:1033C8002E0EE66E984B992BB84BB92BA9C2C0F2BA
:1033D800EBEC09F0AEC204F0AFC205F0B0C206F0E3
:1033E800B1C207F0B0EC01F017EC07F000C0B4F27E
:1033F80001C0B5F202C0B6F203C0B7F2A9534DE05E
:10340800A907A9C200F0000E016E026E036E003615
:103418000090013602360336003600900136023637
:103428000336950E0024F66E6E0E0120F76E000E20
:103438000220F86E0900F5CF04F00900F5CF05F079
:103448000900F5CF06F00900F5CF07F0B4C200F087
:10345800B5C201F0B6C202F0B7C203F09DEC05F0A8
:103468000A0E046E000E056E066E076E9DEC05F0E2
:1034780008C000F009C001F00AC002F00BC003F058
:10348800300E002698C2E1FF99C2E2FF00C0E6FFB5
:10349800984B992BB84BB92BB1D7A751A8110FE06E
:1034A80098C2E1FF99C2E2FF300EE66E984B992B65
:1034B800B84BB92B010EA75F000EA85BEED7ACA7DF
:1034C8001AD0800E006E800EAB19005C02E1AA5182
:1034D800000811E298C2E1FF99C2E2FF200EE66EF1
:1034E800984B992BB84BB92B010EAA5F000EAB5B1A
:1034F800AA51AB11EFE1D1EF0EF0C00EAC15016E81
:10350800ADC202F0000E0216000E021802E1000E13
:103518000118D8A480D0ACA927D09DC2E9FF9EC2CB
:10352800EAFFEECF00F0EECF01F000C0E9FF01C0E6
:10353800EAFFEECFB4F2EECFB5F2EECFB6F2EECFB1
:10354800B7F29DC2E9FF9EC2EAFF040EEE24006EA8
:10355800000EEE20016E9DC2E1FF9EC2E2FF00C098
:10356800E6FF01C0E6FF2FD09DC2E9FF9EC2EAFF39
:10357800EECF00F0EECF01F000C0E9FF01C0EAFF96
:10358800EECF00F0EECF01F0000E01BEFF0E026E8E
:10359800036E00C0B4F201C0B5F202C0B6F203C0B7
:1035A800B7F29DC2E9FF9EC2EAFF020EEE24006E4A
:1035B800000EEE20016E9DC2E1FF9EC2E2FF00C038
:1035C800E6FF01C0E6FF800EB719006E800E005CB2
:1035D80008E1000EB65D05E1000EB55D02E1000EE2
:1035E800B45D18E2030EAC13000EAD13006A016A55
:1035F800026A036AB451005EB551015AB651025AC3
:10360800B751035A00C0B4F201C0B5F202C0B6F215
:1036180003C0B7F24ED0ACA927D09DC2E9FF9EC225
:10362800EAFFEECF00F0EECF01F000C0E9FF01C0E5
:10363800EAFFEECFB4F2EECFB5F2EECFB6F2EECFB0
:10364800B7F29DC2E9FF9EC2EAFF040EEE24006EA7
:10365800000EEE20016E9DC2E1FF9EC2E2FF00C097
:10366800E6FF01C0E6FF25D09DC2E9FF9EC2EAFF42
:10367800EECF00F0EECF01F000C0E9FF01C0EAFF95
:10368800EECFB4F2EECFB5F2000EB66FB76F9DC2B3
:10369800E9FF9EC2EAFF020EEE24006E000EEE2045
:1036A800016E9DC2E1FF9EC2E2FF00C0E6FF01C0BD
:1036B800E6FF000EA81902E1000EA7190FE1000E9F
:1036C800006EB71908E10050B61905E10050B519A8
:1036D80002E1B451000A02E1A74BA82BC00EAC15B9
:1036E800006E00C005F0AED0010EA96FA9510A0AFC
:1036F80034E0A9C200F0000E016E026E036E0036BF
:103708000090013602360336003600900136023644
:103718000336950E0024F66E6E0E0120F76E000E2D
:103728000220F86E0900F5CF01F00900F5CF02F08C
:103738000900F5CF03F00900F5CF04F00450B75D98
:1037480008E10350B65D05E10250B55D02E10150A4
:10375800B45D01E202D0A92BC9D782D0010EA96FAE
:10376800A951080A34E0A9C200F0000E016E026EE9
:10377800036E00360090013602360336003600909C
:10378800013602360336BD0E0024F66E6E0E012099
:10379800F76E000E0220F86E0900F5CF01F009005F
:1037A800F5CF02F00900F5CF03F00900F5CF04F0DA
:1037B8000450B75D08E10350B65D05E10250B55D00
:1037C80002E10150B45D01E202D0A92BC9D748D06B
:1037D800010EA96FA9510C0A34E0A9C200F0000E2D
:1037E800016E026E036E0036009001360236033613
:1037F80000360090013602360336650E0024F66E58
:103808006E0E0120F76E000E0220F86E0900F5CF4B
:1038180001F00900F5CF02F00900F5CF03F0090027
:10382800F5CF04F00450B75D08E10350B65D05E13B
:103838000250B55D02E10150B45D01E202D0A92B4E
:10384800C9D70ED00550000AD8B44ED70550C00AC3
:10385800D8B44AD70550800A81E00550400AB8E03C
:10386800800E006E800EA819005C02E1A751A95DC8
:1038780003E2A7C2A9F20DD0800EA819006E800E2F
:10388800005C02E1A951A75D04E2A9C2A7F2000EFB
:10389800A86FAA51AB110EE0030EAC15006EADC2B5
:1038A80001F0000E01160050011004E0010EAA5F9D
:1038B800000EAB5B800EA819006E800EAB19005C81
:1038C80002E1AA51A75D05E2A751AA5FA851AB5B27
:1038D80002D0AA6BAB6BC40EAC15016EAD51080BD0
:1038E800026E0250080A02E1400E011808E1AA51CE
:1038F800AB1104E0010EAA5F000EAB5B1CD0C00E3A
:10390800AC15016EAD51080B026E0250080A02E1B7
:10391800800E011810E1800E006E800EAB19005C5D
:1039280002E1AA51020805E2020EAA5F000EAB5B93
:1039380002D0AA6BAB6BACA55DD0ACA312D0ACA186
:1039480003D02D0EA36F02D02B0EA36F98C2E1FFF8
:1039580099C2E2FFA3C2E6FF984B992BB84BB92B4B
:1039680034D0ACA10BD098C2E1FF99C2E2FF200E7F
:10397800E66E984B992BB84BB92B27D0C00EAC15D7
:10398800016EAD51080B026E0250080A02E1800E6A
:1039980001181BE198C2E1FF99C2E2FF300EE66E02
:1039A800984B992BB84BB92BACAB03D0580EA46FDE
:1039B80002D0780EA46F98C2E1FF99C2E2FFA4C2B8
:1039C800E6FF984B992BB84BB92BAA51AB1111E0D4
:1039D80098C2E1FF99C2E2FF300EE66E984B992B30
:1039E800B84BB92B010EAA5F000EAB5BAA51AB1105
:1039F800EFE174D0AA51AB1113E0ACB711D098C263
:103A0800E1FF99C2E2FF200EE66E984B992BB84B66
:103A1800B92B010EAA5F000EAB5BAA51AB11EFE107
:103A2800ACA312D0ACA103D02D0EA56F02D02B0EE3
:103A3800A56F98C2E1FF99C2E2FFA5C2E6FF984BC5
:103A4800992BB84BB92B0CD0ACA10AD098C2E1FF86
:103A580099C2E2FF200EE66E984B992BB84BB92B12
:103A6800C00EAC15016EAD51080B026E0250080A6B
:103A780002E1400E01180BE198C2E1FF99C2E2FF92
:103A8800300EE66E984B992BB84BB92B27D0C00E49
:103A9800AC15016EAD51080B026E0250080A02E126
:103AA800800E01181BE198C2E1FF99C2E2FF300EB7
:103AB800E66E984B992BB84BB92BACAB03D0580E8C
:103AC800A66F02D0780EA66F98C2E1FF99C2E2FFF6
:103AD800A6C2E6FF984B992BB84BB92B800E006E07
:103AE800800EA819005C02E1A751A95D0BE298C2FB
:103AF800E1FF99C2E2FF300EE66E984B992BB84B66
:103B0800B92BECD7A7C200F0A8C201F0010EA75F3D
:103B1800000EA85B00500110D8B42AD1C00EAC1515
:103B2800006E00C0BAF20AD1A7C200F0A8C201F024
:103B3800000EA8BFFF0E026E036E0036009001361D
:103B48000236033600360090013602360336950EEB
:103B58000024F66E6E0E0120F76E000E0220F86E3D
:103B68000900F5CF04F00900F5CF05F00900F5CFFD
:103B780006F00900F5CF07F0B4C200F0B5C201F0B5
:103B8800B6C202F0B7C203F09DEC05F00A0E046E4F
:103B9800000E056E066E076E9DEC05F008C000F07D
:103BA80009C001F00AC002F00BC003F0300E002477
:103BB800A96FD3D0ACAB45D0A7C200F0A8C201F022
:103BC800000EA8BFFF0E026E036E0036009001368D
:103BD8000236033600360090013602360336BD0E33
:103BE8000024F66E6E0E0120F76E000E0220F86EAD
:103BF8000900F5CF04F00900F5CF05F00900F5CF6D
:103C080006F00900F5CF07F0B4C200F0B5C201F024
:103C1800B6C202F0B7C203F09DEC05F00F0E001615
:103C2800000E011602160316F50E0024F66E6E0E2F
:103C38000120F76E000E0220F86E0900F5CFA9F2F8
:103C480044D0A7C200F0A8C201F0000EA8BFFF0E22
:103C5800026E036E003600900136023603360036D7
:103C68000090013602360336BD0E0024F66E6E0E45
:103C78000120F76E000E0220F86E0900F5CF04F05F
:103C88000900F5CF05F00900F5CF06F00900F5CFDA
:103C980007F0B4C200F0B5C201F0B6C202F0B7C274
:103CA80003F09DEC05F00F0E0016000E011602162B
:103CB8000316060E0024F66E6F0E0120F76E000E36
:103CC8000220F86E0900F5CFA9F247D0A7C200F08C
:103CD800A8C201F0000EA8BFFF0E026E036E0036E8
:103CE800009001360236033600360090013602365F
:103CF8000336650E0024F66E6E0E0120F76E000E78
:103D08000220F86E0900F5CF04F00900F5CF05F0A0
:103D18000900F5CF06F00900F5CF07F0B4C200F0AE
:103D2800B5C201F0B6C202F0B7C203F09DEC05F0CF
:103D3800070E0014A96F300EA9270FD0BA51000A38
:103D4800D8B4F2D6BA51C00AD8B4EED6BA51800A5D
:103D5800D8B430D7BA51400AB9E098C2E1FF99C245
:103D6800E2FFA9C2E6FF984B992BB84BB92BCAD6EC
:103D7800ACA71AD0800E006E800EAB19005C02E171
:103D8800AA51000811E298C2E1FF99C2E2FF200E91
:103D9800E66E984B992BB84BB92B010EAA5F000E13
:103DA800AB5BAA51AB11EFE1D1EF0EF0B8C200F056
:063DB800B9C201F0120087
:103DBE00086A096A100E0C6E013408360936045072
:103DCE00085E0550D8A0053C095ED8B007D0045057
:103DDE0008260550D8B0053C0926D8900036013685
:063DEE000C2EEAD71200C2
:103DF4000050086E0150006E0250016E0350026EB6
:103E0400036A0B6A0C6A9E0E036E0A6A02AE17EF0F
:103E14001FF0081E001E011E021E082AD8B4002A24
:103E2400D8B4012AD8B4022A0A8E020E0C6E32ECDF
:043E340000F0120088
:103E3800C26A0001A21D006E0050C1160F0EC0120A
:103E4800C08E8BC200F00036009000360090005003
:103E5800C212C280C7EC0EF0C282C2A201D0FDD746
:103E6800C4CF01F0006A00C08CF201C08DF2C350CB
:103E78000012000E011200C08CF201C08DF2C29037
:103E8800000E0014026E0150800B036E000E031822
:103E980002E1000E021803E002018C6B8D6B8CC2EC
:083EA80000F08DC201F01200D0
:103EB00002018E6B8BC2E9FF8CC2EAFFEECF8DF25E
:103EC0008D51000A0FE08DC2C5F253EC04F00201DF
:103ED0008E2B8E518B25E96E000E8C21EA6EEECF73
:063EE0008DF2EED7120086
:103EE60002018F6B8F6B800E8F19006E800E030A96
:103EF600005CD8B0D2D08FC200F0000E8FBFFF0E8C
:103F0600016E003600900136003600900136FD0E37
:103F16000024946F000E0120956F8B5100268C5162
:103F2600012200C0E9FF01C0EAFFEECF00F0EECFAC
:103F360001F0EECF02F0EECF03F059DFCD0E046EA6
:103F4600CC0E056E4C0E066E7C0E076EB0EC01F0C4
:103F560000C090F201C091F202C092F203C093F247
:103F660094C200F095C201F000C0E9FF01C0EAFF6B
:103F7600EECF00F0EECF01F0EECF02F0EECF03F081
:103F860036DFCD0E046ECC0E056E4C0E066E7E0E22
:103F9600076EB0EC01F090C204F091C205F092C237
:103FA60006F093C207F040EC02F017EC07F094C25B
:103FB600E1FF95C2E2FF00C0E6FF01C0E6FF02C0D6
:103FC600E6FF03C0E6FF8FC200F0000E8FBFFF0EB4
:103FD600016E003600900136003600900136F10E73
:103FE6000024946F000E0120956F8D5100268E518E
:103FF600012200C0E9FF01C0EAFFEECF00F0EECFDC
:1040060001F0EECF02F0EECF03F0F1DECD0E046E3E
:10401600CC0E056E4C0E066E7C0E076EB0EC01F0F3
:1040260000C090F201C091F202C092F203C093F276
:1040360094C200F095C201F000C0E9FF01C0EAFF9A
:10404600EECF00F0EECF01F0EECF02F0EECF03F0B0
:10405600CEDECD0E046ECC0E056E4C0E066E7E0EBA
:10406600076EB0EC01F090C204F091C205F092C266
:1040760006F093C207F040EC02F017EC07F094C28A
:10408600E1FF95C2E2FF00C0E6FF01C0E6FF02C005
:0C409600E6FF03C0E6FF8F2B26D71200C8
:1040A2008B0E046E020E056E030E0424E96E000EE2
:1040B2000520EA6E7E0EEE5C006E016A000E015A69
:1040C2008FC2E1FF90C2E2FF00C0E6FF01C0E6FF3F
:1040D200030E0424E16E000E0520E26E7E0EE66EF3
:1040E2008BC200F08CC201F08DC202F08EC203F0CE
:0240F2001200BA
:1040F400DCEC0DF0D00E0201986F26EC0EF03B0EB6
:104104000201986F26EC0EF089EC0EF0DCEC0DF059
:10411400D10E0201986F26EC0EF0010E0201986F89
:1041240078EC0DF000C08CF202018B6B010E986FDD
:1041340078EC0DF0005002018B110101176F8CC255
:1041440018F1000E1813000E18BFFF0E196F1A6F26
:10415400000E196F1A6F010E0201986F78EC0DF0C2
:1041640000C08CF202018B6B010E986F78EC0DF09D
:10417400005002018B1101011B6F8CC21CF1000E57
:104184001C13000E1CBFFF0E1D6F1E6F000E1D6F53
:104194001E6F010E0201986F78EC0DF000C08CF2D6
:1041A40002018B6B010E986F78EC0DF00050020148
:1041B4008B1101011F6F8CC220F1000E2013000E21
:1041C40020BFFF0E216F226F000E216F226F010EA0
:1041D4000201986F78EC0DF000C08CF202018B6B39
:1041E400010E986F78EC0DF0005002018B11000164
:1041F400D36F8CC2D4F0000ED413010E0201986F59
:1042040078EC0DF000C08CF202018B6B010E986FFC
:1042140078EC0DF0005002018B1101010B6F8CC280
:104224000CF1000E0C13000E0CBFFF0E0D6F0E6F81
:10423400000E0D6F0E6F010E0201986F78EC0DF0F9
:1042440000C08CF202018B6B010E986F78EC0DF0BC
:10425400005002018B1101010F6F8CC210F1000E8E
:104264001013000E10BFFF0E116F126F000E116FAE
:10427400126F010E0201986F78EC0DF000C08CF201
:1042840002018B6B986B78EC0DF0005002018B11DE
:104294000101136F8CC214F1000E1413000E14BF2D
:1042A400FF0E156F166F000E156F166F89EC0EF06A
:1042B400850E0001D325006E300ED421016E00C09E
:1042C400D3F001C0D4F0540E046E010E056E88ECD8
:0C42D40004F000C0D3F001C0D4F01200D0
:1042E0008B0E0201916F020E926F030E9125D96E13
:1042F000000E9221DA6EDE508F25016E000E9021A5
:10430000026E01C08FF202C090F2800E0218006EA1
:10431000800E005C02E1000E015C05E2006A016AA9
:10432000026A036A3FD0800E006E800E9019005C16
:1043300002E18F51FF0826E2046A056A066A076AED
:104340008BC200F08CC201F08DC202F08EC203F06D
:1043500036EC05F0010ED8B0000E006E005209E0F8
:10436000FF0E006EFF0E016EFF0E026EFF0E036E5B
:1043700019D0FF0E006EFF0E016E7F0E026EFF0E53
:10438000036E10D0030E9125E16E000E9221E26EB5
:104390008FC2E6FF8BC200F08CC201F08DC202F02A
:0643A0008EC203F01200C2
:1043A60002018F6B050E8F5D0AE28F518D25E16E3E
:1043B600000E8E21E26E200EE66E8F2BF3D78F5104
:1043C6008D25E16E000E8E21E26EE66A8F078F5113
:1043D6008D25906F000E8E21916F0A0E046E000ED1
:1043E600056E8BC200F08CC201F0E6DC08C000F05E
:1043F60009C001F0300E002690C2E1FF91C2E2FF33
:1044060000C0E6FF0A0E046E000E056E8BC200F0B9
:104416008CC201F0D1DC00C08BF201C08CF2000E20
:10442600011802E1000E001801E102D08F07CFD774
:02443600120072
:10443800900E0201966F020E976F8BC298F28CC293
:1044480099F28DC29AF28EC29BF28FC29CF2960E9E
:104458009D6F020E9E6FCCEC0EF000C094F201C06E
:1044680095F200508B25E16E01508C21E26EE66AD0
:0A44780094C200F095C201F012009A
:104482000050086E0150006E016A026A036A0B6AEC
:104492000C6A960E036E0A6A00C001F008C000F0B2
:0A44A200086A026A8BEC0EF01200AB
:0A44AC00000EACB2010E006E12000B
:1044B60000C008F00150006E016A026A036A0B6AC6
:1044C6000C6A016A026A036A960E036E0A6A00AEF5
:1044D60073EF22F0081E001E082AD8B4002A0A8E9E
:1044E60000C001F008C000F0086A026A8BEC0EF00A
:0244F6001200B2
:0C44F800FBC18BF2FCC18CF2D7DC12007F
:0E450400670E0D6E0D2EFED700000000120097
:10451200FBC102F0FCC103F002C000F003C001F0D5
:10452200024A032A00C0E9FF01C0EAFFEE5201E09D
:10453200F3D70101FB51025C006EFC510358016E7E
:0A454200010E005E000E015A120087
:10454C00030E0C6E950E0D6E0D2EFED70C2EFCD799
:02455C0012004B
:10455E00FBC1E9FFFCC1EAFFEE50230A10E09FDF2A
:10456E00005201E1FCD7FBC1E9FFFCC1EAFFEECF2F
:10457E00C5F253EC04F00101FB4BFC2BE9D78FDFA6
:10458E00005201E1FCD7230E0201C56F53EC04F07B
:10459E001A0E0C6EF80E0D6E0D2EFED70C2EFCD7CD
:0445AE0000001200F7
:1045B20002017F6B806B816B826B850E836FEB0ECA
:1045C200846F510E856F800E866F000E0101FD6FA4
:1045D200040EFE6F096B0A6B800E0A19006E800EC4
:1045E200005C02E10A0E095D43E2FBC18BF223DCAF
:1045F20047DF83C204F084C205F085C206F086C29A
:1046020007F0B0EC01F000C087F201C088F202C0EE
:1046120089F203C08AF2FDC100F0FEC101F04ADF57
:1046220000C004F001C005F002C006F003C007F0AC
:1046320087C200F088C201F089C202F08AC203F088
:104642002DEC09F07FC204F080C205F081C206F0B1
:1046520082C207F040EC02F000C07FF201C080F29B
:1046620002C081F203C082F20101094B0A2BB4D7C6
:10467200000E046E000E056E200E066E820E076E90
:104682007FC200F080C201F081C202F082C203F058
:064692002DEC09F01200FE
:0A4698000000000000000000120006
:0C46A2000A0E0201C56F53EC04F0120078
:1046AE007F0E02018B6F020E8C6F370E8D6F6F0EA9
:1046BE008E6F000E8F6FFBC190F2FCC191F2FDC1A7
:1046CE0092F2FEC193F2B1DE7F0E8B6F020E8C6FF3
:1046DE0058EC1FF02A0E8B6F000E8C6F58EC1FF0EB
:0246EE001200B8
:0C46F000420E0D6E0D2EFED700001200D1
:1046FC000101FD6BFE6BFF6B0201006B0101FD6B99
:10470C00FE6BFC51FE5D02E1FB51FD5D10E2ECDC49
:10471C00170E02018B6F010E8C6F0B0E8D6F010E3D
:10472C008E6F73EC1FF00101FD4BFE2BEAD70201DB
:10473C00006B800E0019006E800E030A005C6EE2A6
:10474C0000C200F0000E00BFFF0E016E003600909C
:10475C000136003600900136E10E0024E16E000EA9
:10476C000120E26EFD0E0024E96E000E0120EA6EBF
:10477C00BB0E0024D96E000E0120DA6EEECF00F0D5
:10478C00EECF01F0EECF02F0EECF03F0DE50005E84
:10479C00DE50015ADE50025ADE50035A00C0E6FFCA
:1047AC0001C0E6FF02C0E6FF03C0E6FF00C200F056
:1047BC00000E00BFFF0E016E003600900136003671
:1047CC0000900136AF0E0024E16E000E0120E26E67
:1047DC00F10E0024E96E000E0120EA6EA30E0024F7
:1047EC00D96E000E0120DA6EEECF00F0EECF01F0A4
:1047FC00EECF02F0EECF03F0DE50005EDE50015A39
:10480C00DE50025ADE50035A00C0E6FF01C0E6FF3C
:10481C0002C0E6FF03C0E6FF002B8BD7006B800EB7
:10482C000019006E800E030A005CD8B07ED000C266
:10483C0000F0000E00BFFF0E016E00360090013636
:10484C00003600900136230E00247F6F010E0120EC
:10485C00806FAF0E0024E96E000E0120EA6EEECFE1
:10486C0000F0EECF01F0EECF02F0EECF03F0FAEC59
:10487C001EF0000E046E000E056E030E066E860E04
:10488C00076E2DEC09F07FC2E1FF80C2E2FF00C091
:10489C00E6FF01C0E6FF02C0E6FF03C0E6FF00C270
:1048AC0000F0000E020100BFFF0E016E00360090FA
:1048BC000136003600900136C70E00247F6F000EC3
:1048CC000120806FE10E0024E96E000E0120EA6EDB
:1048DC00EECF00F0EECF01F0EECF02F0EECF03F012
:1048EC00FAEC1EF0000E046E000E056E000E066E45
:1048FC008D0E076E2DEC09F0C30E046EF50E056ED1
:10490C001C0E066E820E076EB0EC01F07FC2E1FF4A
:10491C0080C2E2FF00C0E6FF01C0E6FF02C0E6FF76
:10492C0003C0E6FF0201002B7AD70101FF6B800E5A
:10493C00FF19006E800E030A005CD8B09ED0FFC138
:10494C0085F2000EFFBFFF0E0201866F8537859141
:10495C008637853785918637D50E8525836F000E72
:10496C008621846F83C2E9FF84C2EAFFEECF00F098
:10497C00EECF01F0EECF02F0EECF03F0480E046E56
:10498C00E10E056E7A0E066E7E0E076EB0EC01F02F
:10499C0000C07FF201C080F202C081F203C082F23B
:1049AC00C70E8525D96E000E8621DA6EDECF00F09B
:1049BC00DECF01F0DECF02F0DECF03F00A0E046E84
:1049CC00D70E056E230E066E790E076EB0EC01F055
:1049DC007FC204F080C205F081C206F082C207F0EB
:1049EC0040EC02F083C2E1FF84C2E2FF00C0E6FFAC
:1049FC0001C0E6FF02C0E6FF03C0E6FFFFC100F006
:104A0C00000E0101FFBFFF0E016E00360090013653
:104A1C00003600900136C70E002402017F6F000E95
:104A2C000120806FD50E0024D96E000E0120DA6EA5
:104A3C00DECF04F0DECF05F0DECF06F0DECF07F0E0
:104A4C007FC2E9FF80C2EAFFEECF00F0EECF01F0AB
:104A5C00EECF02F0EECF03F013EC07F07FC2E1FFD4
:104A6C0080C2E2FF00C0E6FF01C0E6FF02C0E6FF25
:0C4A7C0003C0E6FF0101FF2B5AD7120017
:104A88000201816B826BFBC183F2FCC184F2800E50
:104A98000101FC19006E800E005C02E1000EFB5D56
:104AA8000EE2010E0201816F000E826F0101FB51BF
:104AB80000080201836FFCC184F2000E845783C290
:104AC8008BF284C28CF2FDC18DF2FEC18EF267DCDE
:104AD800060E7F6F000E806F000E006E8051005C26
:104AE80002E17F5100081FE27F510101FD25E16EBF
:104AF800020180510101FE21E26E010E02017F5D7B
:104B0800006E000E8059016E00500101FD25E96E0E
:104B18000150FE21EA6EEECFE6FF010E02017F5F33
:104B2800000E805BD9D7FDC1E1FFFEC1E2FF200E78
:104B3800E66E8151821122E07F6B806B7F5101010B
:104B4800FD25E96E020180510101FE21EA6EEE5059
:104B5800200A04E102017F4B802BF0D70201010EED
:104B68007F5F000E805B7F510101FD25E16E020130
:0E4B780080510101FE21E26E2D0EE66E12004C
:104B86000900F5CFE6FF0006FBE10106F9E1120098
:104B96000450085E0550D8A0053C095E0650D8A012
:104BA600063C0A5E0750D8A0073C0B5E0336070E8C
:104BB6000C6E0334083609360A360B36045003A049
:104BC6000ED0085E0550D8A0053C095E0650D8A058
:104BD600063C0A5E0750D8A0073C0B5E0DD008269F
:104BE6000550D8B0053C09260650D8B0063C0A2622
:104BF6000750D8B0073C0B2603360C2EDAD7023402
:104C0600083609360A360B36045003A00ED0085E65
:104C16000550D8A0053C095E0650D8A0063C0A5EA1
:104C26000750D8A0073C0B5E0DD008260550D8B01B
:104C3600053C09260650D8B0063C0A260750D8B0CF
:104C4600073C0B260236070E0C6E02340836093670
:104C56000A360B36045002A00ED0085E0550D8A0C6
:104C6600053C095E0650D8A0063C0A5E0750D8A04F
:104C7600073C0B5E0DD008260550D8B0053C09262A
:104C86000650D8B0063C0A260750D8B0073C0B267B
:104C960002360C2EDAD70134083609360A360B36B8
:104CA600045002A00ED0085E0550D8A0053C095E4F
:104CB6000650D8A0063C0A5E0750D8A0073C0B5EFB
:104CC6000DD008260550D8B0053C09260650D8B0A8
:104CD600063C0A260750D8B0073C0B260136070EBD
:104CE6000C6E0134083609360A360B36045001A01C
:104CF6000ED0085E0550D8A0053C095E0650D8A027
:104D0600063C0A5E0750D8A0073C0B5E0DD008266D
:104D16000550D8B0053C09260650D8B0063C0A26F0
:104D26000750D8B0073C0B2601360C2EDAD70034D4
:104D3600083609360A360B36045001A00ED0085E36
:104D46000550D8A0053C095E0650D8A0063C0A5E70
:104D56000750D8A0073C0B5E0DD008260550D8B0EA
:104D6600053C09260650D8B0063C0A260750D8B09E
:104D7600073C0B260036070E0C6E00340836093643
:104D86000A360B36045000A00ED0085E0550D8A097
:104D9600053C095E0650D8A0063C0A5E0750D8A01E
:104DA600073C0B5E0DD008260550D8B0053C0926F9
:104DB6000650D8B0063C0A260750D8B0073C0B264A
:104DC60000360C2EDAD700B00ED004500826055057
:104DD600D8B0053C09260650D8B0063C0A2607502E
:084DE600D8B0073C0B261200B7
:104DEE000B1E0A1E091E081E082AD8B4092AD8B49A
:084DFE000A2AD8B40B2A1200A6
:104E0600FBC104F0FCC105F0FDC106F0FEC107F0D0
:104E1600006A016A026A036A36EC05F0000ED8B031
:104E2600010E006E005205E0006A016A026A036A1A
:104E3600F9D0FBC17FF2FCC180F2FDC181F2FEC157
:104E460082F2000E046E000E056E000E066E7F0ED8
:104E5600076EFBC100F0FCC101F0FDC102F0FEC10E
:104E660003F036EC05F0010ED8B0000E006E0052CD
:104E76001AE07FC204F080C205F081C206F082C249
:104E860007F0000E006E000E016E000E026E7F0E21
:104E9600036E2DEC09F000C07FF201C080F202C063
:104EA60081F203C082F27FC28BF280C28CF281C291
:104EB6008DF282C28EF2870E02018F6F020E906F04
:104EC60051EC20F000C07FF201C080F202C081F2F6
:104ED60003C082F200C08BF201C08CF202C08DF2D8
:104EE60003C08EF287C28FF288C290F290338F335E
:104EF600909F90BD908F90AF03D002E38F4B902B85
:104F060070EC21F000C07FF201C080F202C081F295
:104F160003C082F2000E046E000E056E000E066ED1
:104F26007F0E076EFBC100F0FCC101F0FDC102F06F
:104F3600FEC103F036EC05F0010ED8B0000E006E8F
:104F460000521AE07FC204F080C205F081C206F06A
:104F560082C207F0000E006E000E016E000E026E99
:104F66007F0E036E2DEC09F000C07FF201C080F2C7
:104F760002C081F203C082F2140E0101FF6F7FC2EC
:104F860004F080C205F081C206F082C207F0FBC1C0
:104F960000F0FCC101F0FDC102F0FEC103F02DECF2
:104FA60009F07FC204F080C205F081C206F082C219
:104FB60007F040EC02F0000E046E000E056E000EC7
:104FC600066E800E076E2DEC09F000C083F201C05C
:104FD60084F202C085F203C086F27FC204F080C26A
:104FE60005F081C206F082C207F01FEC05F0010E43
:104FF600D8A4000E006E005201E00CD083C27FF2EE
:1050060084C280F285C281F286C282F20101FF0764
:10501600FF53B5E17FC200F080C201F081C202F009
:0650260082C203F012003B
:10502C000450000A12E10550000A0FE10650000A74
:10503C000CE10750000A09E1FF0E006EFF0E016E35
:10504C00FF0E026E7F0E036E97D00C6A07BE0C2A01
:10505C000D6A0B6A0A6A096A086A03500210011089
:10506C000010D8B484D0035007180E6E0EBE0D1E5F
:10507C0007AE0BD0041E051E061E071E042AD8B44C
:10508C00052AD8B4062AD8B4072A03AE0BD0001EC2
:10509C00011E021E031E002AD8B4012AD8B4022A0B
:1050AC00D8B4032A035007100E6E0EBE1CD06DDD53
:1050BC000CBE36D00DAE5BD0001E011E021E031EB0
:1050CC00002AD8B4012AD8B4022AD8B4032A081E5C
:1050DC00091E0A1E0B1E082AD8B4092AD8B40A2A9B
:1050EC00D8B40B2A44D007AE15D003BE0DD0035054
:1050FC000B6E02500A6E0150096E0050086E036A66
:10510C00026A016A006AD6D7036A026A016A006AF7
:10511C00002A000C031E021E011E001E0C8EC7D797
:10512C00082AD8B4092AD8B40A2AD8B40B2A0450AD
:10513C00085CD8A4BFD70550095CD8A4BBD70650CF
:10514C000A5CD8A4B7D707500B5CD8A4B3D70B6AAA
:10515C000A6A096A086A002AD8B4012AD8B4022A51
:10516C00D8B4032A03AEA6D70E6A0E88FF0C0E6ABB
:0A517C000CA001D036DE000F120077
:10518600DAC101F0010E006E015004E00036009015
:10519600FF0FFBD700C0DCF1001ED8C1E9FFD9C163
:1051A600EAFF0050EF16120EE9260050EF16A6ECA5
:1051B60022F00101DC51EF12120EE95E82EC22F0C0
:1051C600DC51EF14DB6FDB51000A000ED8A4010E90
:0C51D600DB6FA6EC22F0DBC100F0120041
:1051E200170EF66E6D0EF76E000EF86E010EE16E82
:1051F200020EE26E7E0E006E010E016EC3DC150E13
:1052020002017D25E16E020E7E21E26E240EE66E23
:105212007D4B7E2B150E7D25E16E020E7E21E26E08
:10522200240EE66E7D4B7E2B150E7D25E16E020E61
:105232007E21E26ED8C1E6FF7D4B7E2B150E7D25C9
:10524200E16E020E7E21E26ED9C1E6FF7D4B7E2B1E
:105252007B6B7C6B800E7C19006E800E005C02E121
:10526200030E7B5D6DE2440E156F010E8B6F020E15
:105272008C6F280E8D6F6F0E8E6F000E8F6F7BC23C
:1052820000F07CC201F0003600900136003600903A
:10529200013600500101DE25E96E0150DF21EA6E80
:1052A200EECF90F2EECF91F2EECF92F2EECF93F2FA
:1052B2001CEC22F01A0E0C6EF80E0D6E0D2EFED79F
:1052C2000C2EFCD70000796B7A6B010E0101FB6F8B
:1052D200020EFC6F89EC22F0800E02017A19026E36
:1052E200800E0118025C02E10050795D1CE2010EA1
:1052F2007925E96E020E7A21EA6EEE502E0A10E04E
:10530200150E7D25E16E020E7E21E26E010E7925DB
:10531200E96E020E7A21EA6EEECFE6FF7D4B7E2B1E
:10532200794B7A2BD2D7150E7D25E16E020E7E21A6
:10533200E26E3B0EE66E7D4B7E2B7B4B7C2B8AD73F
:10534200010E8B6F020E8C6F3C0E8D6F6F0E8E6F87
:10535200000E8F6FDAC190F2DBC191F2DCC192F2E2
:10536200DDC193F21CEC22F01A0E0C6EF80E0D6EDB
:105372000D2EFED70C2EFCD70000796B7A6B010E36
:105382000101FB6F020EFC6F89EC22F0800E02011C
:105392007A19026E800E0118025C02E10050795DFA
:1053A2001CE2010E7925E96E020E7A21EA6EEE50B8
:1053B2002E0A10E0150E7D25E16E020E7E21E26EB0
:1053C200010E7925E96E020E7A21EA6EEECFE6FF32
:1053D2007D4B7E2B794B7A2BD2D7150E7D25E16E34
:1053E200020E7E21E26E230EE66E150E0101FB6FA8
:0A53F200020EFC6FAFEC22F0120077
:1053FC000101FB6BFC6BD9EC22F000C0D8F101C0B1
:10540C00D9F102C0DAF103C0DBF1000E046E000E1C
:10541C00056E000E066E800E076EB0EC01F000C03B
:10542C0004F001C005F002C006F003C007F0660EE0
:10543C00006E660E016E060E026E810E036E36EC69
:10544C0005F0010ED8B0000E006E00522CE0D8C151
:10545C0000F0D9C101F0DAC102F0DBC103F00A0E91
:10546C00046ED70E056E230E066E7C0E076EB0EC26
:10547C0001F000C004F001C005F002C006F003C04A
:10548C0007F0D8C100F0D9C101F0DAC102F0DBC1DC
:10549C0003F013EC07F000C0D8F101C0D9F102C041
:1054AC00DAF103C0DBF1CD0E046ECC0E056E4C0EA2
:1054BC00066E7F0E076ED8C100F0D9C101F0DAC1BB
:1054CC0002F0DBC103F013EC07F0C20E046EA60E63
:1054DC00056E350E066E860E076EB0EC01F0000EF2
:1054EC00046E000E056E000E066E7F0E076E40EC0D
:0454FC0002F01200A8
:10550000DAC101F0010E006E015004E00036009097
:10551000FF0FFBD700C0DEF1001E00C0DDF1D8C1D7
:10552000E9FFD9C1EAFF0050EF16120EE92601018A
:10553000DC6BDC51070816E3DCC100F0DBC101F0D5
:10554000005004E00132019EFF0FFBD7DD51EF1642
:1055500001A002D0DE51EF1282EC22F0DE51EF12F8
:10556000DC2BE7D7120EE95E78EC23F078EC23F021
:02557000120027
:10557200DAC101F0010E006E015004E00036009025
:10558200FF0FFBD700C0DEF1001C0101DD6FDC6BF9
:10559200D8C1E9FFD9C1EAFFDB6BDB51070824E37D
:1055A200DD51EF16120EE926DD51EF164CEC23F019
:1055B200DE51EF124CEC23F0120EE95EDE51EF14D5
:1055C200006E0CE0DBC101F0010E006E015004E040
:1055D20000360090FF0FFBD70050DC1378EC23F06D
:0E55E20078EC23F0DB2BD9D7DCC100F01200EF
:1055F000DE0E0101506F080E516F000E526F000E4B
:10560000536FB80E546F1B0E556F000E566F000E81
:10561000576FFF0E586FFF0E596F000E5A6F000E36
:105620005B6FF00E346F1A0E356F980E366F020EE8
:10563000376F4C0E386F1C0E396F980E3A6F020E92
:105640003B6F120E3C6F1D0E3D6F000E3E6F000E45
:105650003F6F949894968B988B9694889486C79E67
:08566000C79C380EC66E120053
:10566800D8C1FBF1D9C1FCF17CEC22F0DAC1FBF125
:10567800DBC1FCF1DCC1FDF1DDC1FEF157EC23F02B
:0656880051EC23F01200BA
:10568E00D8C1FBF1D9C1FCF1DA0E0101FD6F010E9B
:10569E00FE6F44EC25F0DA0E02018B6F010E8C6F5B
:1056AE0058EC1FF06F0E8B6F000E8C6F58EC1FF0C6
:0256BE001200D8
:1056C000010E0101FB6F000EFC6F7EEC23F023C185
:1056D00000F024C101F025C102F026C103F023C16E
:1056E00004F024C105F025C106F026C107F0B0EC96
:1056F00001F000C0D8F101C0D9F102C0DAF103C055
:10570000DBF127C100F028C101F029C102F02AC154
:1057100003F027C104F028C105F029C106F02AC111
:1057200007F0B0EC01F0D8C104F0D9C105F0DAC13E
:1057300006F0DBC107F040EC02F000C0FBF101C055
:10574000FCF102C0FDF103C0FEF103EC27F01200F2
:105750000101DB6BDC6BDD6BDE6BDF6BE06BE16B48
:10576000E26BE36BE46BE56BE66B240EDB6FD8C199
:10577000DCF1D9C1DDF1DAC1DEF1230EDF6FDB0E22
:0C578000FB6F010EFC6FAFEC22F012007A
:10578C00D8C18BF2D9C18CF258EC1FF00A0EC56F40
:06579C0053EC04F01200C2
:1057A2000101DE6BDF6BE06BE16BE26BE36BE46BE1
:1057B200E56BE66BE76BE86BE96BEA6BEB6BEC6B4B
:1057C200ED6BEE6BEF6BF06BF16BF26BF36B030E49
:1057D200F46F000EF56F240EDE6FD8C1DFF1D9C170
:1057E200E0F1F60E02018B6F010E8C6F2D0E8D6FA4
:1057F2006F0E8E6F000E8F6FDAC190F2DBC191F2E5
:10580200DCC192F2DDC193F21CEC22F00101F26BD9
:10581200F36BF60EFB6F010EFC6F89EC22F0800E2B
:10582200F319026E800E0118025C02E10050F25D73
:105832001CE2F60EF225E96E010EF321EA6EEE503D
:105842002E0A10E0DE0EF425E16E010EF521E26E65
:10585200F60EF225E96E010EF321EA6EEECFE6FFB7
:10586200F44BF52BF24BF32BD4D7DE0EF425E16E7D
:10587200010EF521E26E230EE66EDE0EFB6F010EC7
:08588200FC6FAFEC22F01200F4
:10588A00010ECD6E9E90630ECF6EC00ECE6E9F90AF
:10589A009D80C00EF26EF288F18CF28ED08EF28C60
:0258AA001200EA
:1058AC00700ED36ED26AAF0E9B6E030E0F01386F63
:1058BC00396B3A6B796A786A776AC26A080EC16E7C
:1058CC00270E926E030E936EA00E946E896A806AF8
:0458DC00F18E120037
:1058E000130E0D6E0D2EFED7000000000400316A6D
:1058F000010E01012F6F80861A0E0C6EF80E0D6ED0
:0E5900000D2EFED70C2EFCD700008188120061
:10590E0001015C6B5D6B810ED86F0F0ED96F010EAE
:10591E00DA6F32DC810ED86F0F0ED96F010EDA6F8F
:10592E00CC0EDB6FE6DD810ED86F0F0ED96F010E38
:10593E00DA6F440EDB6FDDDD680E0C6EE40E0D6E5D
:10594E000D2EFED70C2EFCD70000810ED86F0F0E39
:10595E00D96F010EDA6F10DC810ED86F0F0ED96F72
:10596E00010EDA6FCC0EDB6FC4DD810ED86F0F0E19
:10597E00D96F010EDA6FBE0EDB6FBBDD810ED86FF5
:10598E000F0ED96F010EDA6FEDDD00C05CF1000E67
:10599E005D6FFE0E5C17000E5D17810ED86F0F0E39
:1059AE00D96F010EDA6FDEDD00C003F0026A5C51C2
:1059BE000224006E5D510320016E00C05CF101C037
:1059CE005DF1100E046E000E056E88EC04F000C042
:0859DE005CF101C05DF1120053
:1059E6000A0EC86E02DE030E0B6E080E0C6E770EE4
:1059F6000D6E0D2EFED70C2EFCD70B2EFAD7DCEC37
:105A06000DF0D00E0201986F26EC0EF0190E020171
:105A1600986F26EC0EF0070E0201986F26EC0EF03A
:105A260089EC0EF0DCEC0DF0D00E0201986F26EC3E
